{
  "_format": "hh-sol-artifact-1",
  "contractName": "MyNFT",
  "sourceName": "contracts/MyNFT.sol",
  "abi": [
    {
      "inputs": [],
      "stateMutability": "nonpayable",
      "type": "constructor"
    },
    {
      "inputs": [
        {
          "internalType": "address",
          "name": "sender",
          "type": "address"
        },
        {
          "internalType": "uint256",
          "name": "tokenId",
          "type": "uint256"
        },
        {
          "internalType": "address",
          "name": "owner",
          "type": "address"
        }
      ],
      "name": "ERC721IncorrectOwner",
      "type": "error"
    },
    {
      "inputs": [
        {
          "internalType": "address",
          "name": "operator",
          "type": "address"
        },
        {
          "internalType": "uint256",
          "name": "tokenId",
          "type": "uint256"
        }
      ],
      "name": "ERC721InsufficientApproval",
      "type": "error"
    },
    {
      "inputs": [
        {
          "internalType": "address",
          "name": "approver",
          "type": "address"
        }
      ],
      "name": "ERC721InvalidApprover",
      "type": "error"
    },
    {
      "inputs": [
        {
          "internalType": "address",
          "name": "operator",
          "type": "address"
        }
      ],
      "name": "ERC721InvalidOperator",
      "type": "error"
    },
    {
      "inputs": [
        {
          "internalType": "address",
          "name": "owner",
          "type": "address"
        }
      ],
      "name": "ERC721InvalidOwner",
      "type": "error"
    },
    {
      "inputs": [
        {
          "internalType": "address",
          "name": "receiver",
          "type": "address"
        }
      ],
      "name": "ERC721InvalidReceiver",
      "type": "error"
    },
    {
      "inputs": [
        {
          "internalType": "address",
          "name": "sender",
          "type": "address"
        }
      ],
      "name": "ERC721InvalidSender",
      "type": "error"
    },
    {
      "inputs": [
        {
          "internalType": "uint256",
          "name": "tokenId",
          "type": "uint256"
        }
      ],
      "name": "ERC721NonexistentToken",
      "type": "error"
    },
    {
      "inputs": [
        {
          "internalType": "address",
          "name": "owner",
          "type": "address"
        }
      ],
      "name": "OwnableInvalidOwner",
      "type": "error"
    },
    {
      "inputs": [
        {
          "internalType": "address",
          "name": "account",
          "type": "address"
        }
      ],
      "name": "OwnableUnauthorizedAccount",
      "type": "error"
    },
    {
      "anonymous": false,
      "inputs": [
        {
          "indexed": true,
          "internalType": "address",
          "name": "owner",
          "type": "address"
        },
        {
          "indexed": true,
          "internalType": "address",
          "name": "approved",
          "type": "address"
        },
        {
          "indexed": true,
          "internalType": "uint256",
          "name": "tokenId",
          "type": "uint256"
        }
      ],
      "name": "Approval",
      "type": "event"
    },
    {
      "anonymous": false,
      "inputs": [
        {
          "indexed": true,
          "internalType": "address",
          "name": "owner",
          "type": "address"
        },
        {
          "indexed": true,
          "internalType": "address",
          "name": "operator",
          "type": "address"
        },
        {
          "indexed": false,
          "internalType": "bool",
          "name": "approved",
          "type": "bool"
        }
      ],
      "name": "ApprovalForAll",
      "type": "event"
    },
    {
      "anonymous": false,
      "inputs": [
        {
          "indexed": false,
          "internalType": "uint256",
          "name": "_fromTokenId",
          "type": "uint256"
        },
        {
          "indexed": false,
          "internalType": "uint256",
          "name": "_toTokenId",
          "type": "uint256"
        }
      ],
      "name": "BatchMetadataUpdate",
      "type": "event"
    },
    {
      "anonymous": false,
      "inputs": [
        {
          "indexed": false,
          "internalType": "uint256",
          "name": "_tokenId",
          "type": "uint256"
        }
      ],
      "name": "MetadataUpdate",
      "type": "event"
    },
    {
      "anonymous": false,
      "inputs": [
        {
          "indexed": true,
          "internalType": "address",
          "name": "previousOwner",
          "type": "address"
        },
        {
          "indexed": true,
          "internalType": "address",
          "name": "newOwner",
          "type": "address"
        }
      ],
      "name": "OwnershipTransferred",
      "type": "event"
    },
    {
      "anonymous": false,
      "inputs": [
        {
          "indexed": true,
          "internalType": "address",
          "name": "from",
          "type": "address"
        },
        {
          "indexed": true,
          "internalType": "address",
          "name": "to",
          "type": "address"
        },
        {
          "indexed": true,
          "internalType": "uint256",
          "name": "tokenId",
          "type": "uint256"
        }
      ],
      "name": "Transfer",
      "type": "event"
    },
    {
      "inputs": [
        {
          "internalType": "address",
          "name": "to",
          "type": "address"
        },
        {
          "internalType": "uint256",
          "name": "tokenId",
          "type": "uint256"
        }
      ],
      "name": "approve",
      "outputs": [],
      "stateMutability": "nonpayable",
      "type": "function"
    },
    {
      "inputs": [
        {
          "internalType": "address",
          "name": "owner",
          "type": "address"
        }
      ],
      "name": "balanceOf",
      "outputs": [
        {
          "internalType": "uint256",
          "name": "",
          "type": "uint256"
        }
      ],
      "stateMutability": "view",
      "type": "function"
    },
    {
      "inputs": [
        {
          "internalType": "uint256",
          "name": "tokenId",
          "type": "uint256"
        }
      ],
      "name": "getApproved",
      "outputs": [
        {
          "internalType": "address",
          "name": "",
          "type": "address"
        }
      ],
      "stateMutability": "view",
      "type": "function"
    },
    {
      "inputs": [
        {
          "internalType": "address",
          "name": "owner",
          "type": "address"
        },
        {
          "internalType": "address",
          "name": "operator",
          "type": "address"
        }
      ],
      "name": "isApprovedForAll",
      "outputs": [
        {
          "internalType": "bool",
          "name": "",
          "type": "bool"
        }
      ],
      "stateMutability": "view",
      "type": "function"
    },
    {
      "inputs": [
        {
          "internalType": "address",
          "name": "to",
          "type": "address"
        },
        {
          "internalType": "string",
          "name": "uri",
          "type": "string"
        }
      ],
      "name": "mint",
      "outputs": [
        {
          "internalType": "uint256",
          "name": "",
          "type": "uint256"
        }
      ],
      "stateMutability": "nonpayable",
      "type": "function"
    },
    {
      "inputs": [],
      "name": "name",
      "outputs": [
        {
          "internalType": "string",
          "name": "",
          "type": "string"
        }
      ],
      "stateMutability": "view",
      "type": "function"
    },
    {
      "inputs": [],
      "name": "owner",
      "outputs": [
        {
          "internalType": "address",
          "name": "",
          "type": "address"
        }
      ],
      "stateMutability": "view",
      "type": "function"
    },
    {
      "inputs": [
        {
          "internalType": "uint256",
          "name": "tokenId",
          "type": "uint256"
        }
      ],
      "name": "ownerOf",
      "outputs": [
        {
          "internalType": "address",
          "name": "",
          "type": "address"
        }
      ],
      "stateMutability": "view",
      "type": "function"
    },
    {
      "inputs": [],
      "name": "renounceOwnership",
      "outputs": [],
      "stateMutability": "nonpayable",
      "type": "function"
    },
    {
      "inputs": [
        {
          "internalType": "address",
          "name": "from",
          "type": "address"
        },
        {
          "internalType": "address",
          "name": "to",
          "type": "address"
        },
        {
          "internalType": "uint256",
          "name": "tokenId",
          "type": "uint256"
        }
      ],
      "name": "safeTransferFrom",
      "outputs": [],
      "stateMutability": "nonpayable",
      "type": "function"
    },
    {
      "inputs": [
        {
          "internalType": "address",
          "name": "from",
          "type": "address"
        },
        {
          "internalType": "address",
          "name": "to",
          "type": "address"
        },
        {
          "internalType": "uint256",
          "name": "tokenId",
          "type": "uint256"
        },
        {
          "internalType": "bytes",
          "name": "data",
          "type": "bytes"
        }
      ],
      "name": "safeTransferFrom",
      "outputs": [],
      "stateMutability": "nonpayable",
      "type": "function"
    },
    {
      "inputs": [
        {
          "internalType": "address",
          "name": "operator",
          "type": "address"
        },
        {
          "internalType": "bool",
          "name": "approved",
          "type": "bool"
        }
      ],
      "name": "setApprovalForAll",
      "outputs": [],
      "stateMutability": "nonpayable",
      "type": "function"
    },
    {
      "inputs": [
        {
          "internalType": "bytes4",
          "name": "interfaceId",
          "type": "bytes4"
        }
      ],
      "name": "supportsInterface",
      "outputs": [
        {
          "internalType": "bool",
          "name": "",
          "type": "bool"
        }
      ],
      "stateMutability": "view",
      "type": "function"
    },
    {
      "inputs": [],
      "name": "symbol",
      "outputs": [
        {
          "internalType": "string",
          "name": "",
          "type": "string"
        }
      ],
      "stateMutability": "view",
      "type": "function"
    },
    {
      "inputs": [
        {
          "internalType": "uint256",
          "name": "tokenId",
          "type": "uint256"
        }
      ],
      "name": "tokenURI",
      "outputs": [
        {
          "internalType": "string",
          "name": "",
          "type": "string"
        }
      ],
      "stateMutability": "view",
      "type": "function"
    },
    {
      "inputs": [
        {
          "internalType": "address",
          "name": "from",
          "type": "address"
        },
        {
          "internalType": "address",
          "name": "to",
          "type": "address"
        },
        {
          "internalType": "uint256",
          "name": "tokenId",
          "type": "uint256"
        }
      ],
      "name": "transferFrom",
      "outputs": [],
      "stateMutability": "nonpayable",
      "type": "function"
    },
    {
      "inputs": [
        {
          "internalType": "address",
          "name": "newOwner",
          "type": "address"
        }
      ],
      "name": "transferOwnership",
      "outputs": [],
      "stateMutability": "nonpayable",
      "type": "function"
    }
  ],
  "bytecode": "0x60806040523480156200001157600080fd5b50336040518060400160405280600581526020017f4d794e46540000000000000000000000000000000000000000000000000000008152506040518060400160405280600481526020017f4d4e465400000000000000000000000000000000000000000000000000000000815250816000908162000090919062000472565b508060019081620000a2919062000472565b505050600073ffffffffffffffffffffffffffffffffffffffff168173ffffffffffffffffffffffffffffffffffffffff16036200011a5760006040517f1e4fbdf70000000000000000000000000000000000000000000000000000000081526004016200011191906200059e565b60405180910390fd5b6200012b816200013260201b60201c565b50620005bb565b6000600760009054906101000a900473ffffffffffffffffffffffffffffffffffffffff16905081600760006101000a81548173ffffffffffffffffffffffffffffffffffffffff021916908373ffffffffffffffffffffffffffffffffffffffff1602179055508173ffffffffffffffffffffffffffffffffffffffff168173ffffffffffffffffffffffffffffffffffffffff167f8be0079c531659141344cd1fd0a4f28419497f9722a3daafe3b4186f6b6457e060405160405180910390a35050565b600081519050919050565b7f4e487b7100000000000000000000000000000000000000000000000000000000600052604160045260246000fd5b7f4e487b7100000000000000000000000000000000000000000000000000000000600052602260045260246000fd5b600060028204905060018216806200027a57607f821691505b60208210810362000290576200028f62000232565b5b50919050565b60008190508160005260206000209050919050565b60006020601f8301049050919050565b600082821b905092915050565b600060088302620002fa7fffffffffffffffffffffffffffffffffffffffffffffffffffffffffffffffff82620002bb565b620003068683620002bb565b95508019841693508086168417925050509392505050565b6000819050919050565b6000819050919050565b6000620003536200034d62000347846200031e565b62000328565b6200031e565b9050919050565b6000819050919050565b6200036f8362000332565b620003876200037e826200035a565b848454620002c8565b825550505050565b600090565b6200039e6200038f565b620003ab81848462000364565b505050565b5b81811015620003d357620003c760008262000394565b600181019050620003b1565b5050565b601f8211156200042257620003ec8162000296565b620003f784620002ab565b8101602085101562000407578190505b6200041f6200041685620002ab565b830182620003b0565b50505b505050565b600082821c905092915050565b6000620004476000198460080262000427565b1980831691505092915050565b600062000462838362000434565b9150826002028217905092915050565b6200047d82620001f8565b67ffffffffffffffff81111562000499576200049862000203565b5b620004a5825462000261565b620004b2828285620003d7565b600060209050601f831160018114620004ea5760008415620004d5578287015190505b620004e1858262000454565b86555062000551565b601f198416620004fa8662000296565b60005b828110156200052457848901518255600182019150602085019450602081019050620004fd565b8683101562000544578489015162000540601f89168262000434565b8355505b6001600288020188555050505b505050505050565b600073ffffffffffffffffffffffffffffffffffffffff82169050919050565b6000620005868262000559565b9050919050565b620005988162000579565b82525050565b6000602082019050620005b560008301846200058d565b92915050565b61268b80620005cb6000396000f3fe608060405234801561001057600080fd5b506004361061010b5760003560e01c8063715018a6116100a2578063b88d4fde11610071578063b88d4fde146102a4578063c87b56dd146102c0578063d0def521146102f0578063e985e9c514610320578063f2fde38b146103505761010b565b8063715018a6146102425780638da5cb5b1461024c57806395d89b411461026a578063a22cb465146102885761010b565b806323b872dd116100de57806323b872dd146101aa57806342842e0e146101c65780636352211e146101e257806370a08231146102125761010b565b806301ffc9a71461011057806306fdde0314610140578063081812fc1461015e578063095ea7b31461018e575b600080fd5b61012a60048036038101906101259190611b20565b61036c565b6040516101379190611b68565b60405180910390f35b6101486103cd565b6040516101559190611c13565b60405180910390f35b61017860048036038101906101739190611c6b565b61045f565b6040516101859190611cd9565b60405180910390f35b6101a860048036038101906101a39190611d20565b61047b565b005b6101c460048036038101906101bf9190611d60565b610491565b005b6101e060048036038101906101db9190611d60565b610593565b005b6101fc60048036038101906101f79190611c6b565b6105b3565b6040516102099190611cd9565b60405180910390f35b61022c60048036038101906102279190611db3565b6105c5565b6040516102399190611def565b60405180910390f35b61024a61067f565b005b610254610693565b6040516102619190611cd9565b60405180910390f35b6102726106bd565b60405161027f9190611c13565b60405180910390f35b6102a2600480360381019061029d9190611e36565b61074f565b005b6102be60048036038101906102b99190611fab565b610765565b005b6102da60048036038101906102d59190611c6b565b61078a565b6040516102e79190611c13565b60405180910390f35b61030a6004803603810190610305919061208e565b61089d565b6040516103179190611def565b60405180910390f35b61033a600480360381019061033591906120ee565b610929565b6040516103479190611b68565b60405180910390f35b61036a60048036038101906103659190611db3565b6109bd565b005b6000634906490660e01b7bffffffffffffffffffffffffffffffffffffffffffffffffffffffff1916827bffffffffffffffffffffffffffffffffffffffffffffffffffffffff191614806103c657506103c582610a43565b5b9050919050565b6060600080546103dc9061215d565b80601f01602080910402602001604051908101604052809291908181526020018280546104089061215d565b80156104555780601f1061042a57610100808354040283529160200191610455565b820191906000526020600020905b81548152906001019060200180831161043857829003601f168201915b5050505050905090565b600061046a82610b25565b5061047482610bad565b9050919050565b61048d8282610488610bea565b610bf2565b5050565b600073ffffffffffffffffffffffffffffffffffffffff168273ffffffffffffffffffffffffffffffffffffffff16036105035760006040517f64a0ae920000000000000000000000000000000000000000000000000000000081526004016104fa9190611cd9565b60405180910390fd5b60006105178383610512610bea565b610c04565b90508373ffffffffffffffffffffffffffffffffffffffff168173ffffffffffffffffffffffffffffffffffffffff161461058d578382826040517f64283d7b0000000000000000000000000000000000000000000000000000000081526004016105849392919061218e565b60405180910390fd5b50505050565b6105ae83838360405180602001604052806000815250610765565b505050565b60006105be82610b25565b9050919050565b60008073ffffffffffffffffffffffffffffffffffffffff168273ffffffffffffffffffffffffffffffffffffffff16036106385760006040517f89c62b6400000000000000000000000000000000000000000000000000000000815260040161062f9190611cd9565b60405180910390fd5b600360008373ffffffffffffffffffffffffffffffffffffffff1673ffffffffffffffffffffffffffffffffffffffff168152602001908152602001600020549050919050565b610687610e1e565b6106916000610ea5565b565b6000600760009054906101000a900473ffffffffffffffffffffffffffffffffffffffff16905090565b6060600180546106cc9061215d565b80601f01602080910402602001604051908101604052809291908181526020018280546106f89061215d565b80156107455780601f1061071a57610100808354040283529160200191610745565b820191906000526020600020905b81548152906001019060200180831161072857829003601f168201915b5050505050905090565b61076161075a610bea565b8383610f6b565b5050565b610770848484610491565b61078461077b610bea565b858585856110da565b50505050565b606061079582610b25565b5060006006600084815260200190815260200160002080546107b69061215d565b80601f01602080910402602001604051908101604052809291908181526020018280546107e29061215d565b801561082f5780601f106108045761010080835404028352916020019161082f565b820191906000526020600020905b81548152906001019060200180831161081257829003601f168201915b50505050509050600061084061128b565b90506000815103610855578192505050610898565b60008251111561088a578082604051602001610872929190612201565b60405160208183030381529060405292505050610898565b610893846112a2565b925050505b919050565b60006108a7610e1e565b60006008549050600860008154809291906108c190612254565b91905055506108d0858261130b565b61091e8185858080601f016020809104026020016040519081016040528093929190818152602001838380828437600081840152601f19601f82011690508083019250505050505050611329565b809150509392505050565b6000600560008473ffffffffffffffffffffffffffffffffffffffff1673ffffffffffffffffffffffffffffffffffffffff16815260200190815260200160002060008373ffffffffffffffffffffffffffffffffffffffff1673ffffffffffffffffffffffffffffffffffffffff16815260200190815260200160002060009054906101000a900460ff16905092915050565b6109c5610e1e565b600073ffffffffffffffffffffffffffffffffffffffff168173ffffffffffffffffffffffffffffffffffffffff1603610a375760006040517f1e4fbdf7000000000000000000000000000000000000000000000000000000008152600401610a2e9190611cd9565b60405180910390fd5b610a4081610ea5565b50565b60007f80ac58cd000000000000000000000000000000000000000000000000000000007bffffffffffffffffffffffffffffffffffffffffffffffffffffffff1916827bffffffffffffffffffffffffffffffffffffffffffffffffffffffff19161480610b0e57507f5b5e139f000000000000000000000000000000000000000000000000000000007bffffffffffffffffffffffffffffffffffffffffffffffffffffffff1916827bffffffffffffffffffffffffffffffffffffffffffffffffffffffff1916145b80610b1e5750610b1d82611385565b5b9050919050565b600080610b31836113ef565b9050600073ffffffffffffffffffffffffffffffffffffffff168173ffffffffffffffffffffffffffffffffffffffff1603610ba457826040517f7e273289000000000000000000000000000000000000000000000000000000008152600401610b9b9190611def565b60405180910390fd5b80915050919050565b60006004600083815260200190815260200160002060009054906101000a900473ffffffffffffffffffffffffffffffffffffffff169050919050565b600033905090565b610bff838383600161142c565b505050565b600080610c10846113ef565b9050600073ffffffffffffffffffffffffffffffffffffffff168373ffffffffffffffffffffffffffffffffffffffff1614610c5257610c518184866115f1565b5b600073ffffffffffffffffffffffffffffffffffffffff168173ffffffffffffffffffffffffffffffffffffffff1614610ce357610c9460008560008061142c565b6001600360008373ffffffffffffffffffffffffffffffffffffffff1673ffffffffffffffffffffffffffffffffffffffff168152602001908152602001600020600082825403925050819055505b600073ffffffffffffffffffffffffffffffffffffffff168573ffffffffffffffffffffffffffffffffffffffff1614610d66576001600360008773ffffffffffffffffffffffffffffffffffffffff1673ffffffffffffffffffffffffffffffffffffffff168152602001908152602001600020600082825401925050819055505b846002600086815260200190815260200160002060006101000a81548173ffffffffffffffffffffffffffffffffffffffff021916908373ffffffffffffffffffffffffffffffffffffffff160217905550838573ffffffffffffffffffffffffffffffffffffffff168273ffffffffffffffffffffffffffffffffffffffff167fddf252ad1be2c89b69c2b068fc378daa952ba7f163c4a11628f55a4df523b3ef60405160405180910390a4809150509392505050565b610e26610bea565b73ffffffffffffffffffffffffffffffffffffffff16610e44610693565b73ffffffffffffffffffffffffffffffffffffffff1614610ea357610e67610bea565b6040517f118cdaa7000000000000000000000000000000000000000000000000000000008152600401610e9a9190611cd9565b60405180910390fd5b565b6000600760009054906101000a900473ffffffffffffffffffffffffffffffffffffffff16905081600760006101000a81548173ffffffffffffffffffffffffffffffffffffffff021916908373ffffffffffffffffffffffffffffffffffffffff1602179055508173ffffffffffffffffffffffffffffffffffffffff168173ffffffffffffffffffffffffffffffffffffffff167f8be0079c531659141344cd1fd0a4f28419497f9722a3daafe3b4186f6b6457e060405160405180910390a35050565b600073ffffffffffffffffffffffffffffffffffffffff168273ffffffffffffffffffffffffffffffffffffffff1603610fdc57816040517f5b08ba18000000000000000000000000000000000000000000000000000000008152600401610fd39190611cd9565b60405180910390fd5b80600560008573ffffffffffffffffffffffffffffffffffffffff1673ffffffffffffffffffffffffffffffffffffffff16815260200190815260200160002060008473ffffffffffffffffffffffffffffffffffffffff1673ffffffffffffffffffffffffffffffffffffffff16815260200190815260200160002060006101000a81548160ff0219169083151502179055508173ffffffffffffffffffffffffffffffffffffffff168373ffffffffffffffffffffffffffffffffffffffff167f17307eab39ab6107e8899845ad3d59bd9653f200f220920489ca2b5937696c31836040516110cd9190611b68565b60405180910390a3505050565b60008373ffffffffffffffffffffffffffffffffffffffff163b1115611284578273ffffffffffffffffffffffffffffffffffffffff1663150b7a02868685856040518563ffffffff1660e01b815260040161113994939291906122f1565b6020604051808303816000875af192505050801561117557506040513d601f19601f820116820180604052508101906111729190612352565b60015b6111f9573d80600081146111a5576040519150601f19603f3d011682016040523d82523d6000602084013e6111aa565b606091505b5060008151036111f157836040517f64a0ae920000000000000000000000000000000000000000000000000000000081526004016111e89190611cd9565b60405180910390fd5b805160208201fd5b63150b7a0260e01b7bffffffffffffffffffffffffffffffffffffffffffffffffffffffff1916817bffffffffffffffffffffffffffffffffffffffffffffffffffffffff19161461128257836040517f64a0ae920000000000000000000000000000000000000000000000000000000081526004016112799190611cd9565b60405180910390fd5b505b5050505050565b606060405180602001604052806000815250905090565b60606112ad82610b25565b5060006112b861128b565b905060008151116112d85760405180602001604052806000815250611303565b806112e2846116b5565b6040516020016112f3929190612201565b6040516020818303038152906040525b915050919050565b611325828260405180602001604052806000815250611783565b5050565b80600660008481526020019081526020016000209081611349919061252b565b507ff8e1a15aba9398e019f0b49df1a4fde98ee17ae345cb5f6b5e2c27f5033e8ce7826040516113799190611def565b60405180910390a15050565b60007f01ffc9a7000000000000000000000000000000000000000000000000000000007bffffffffffffffffffffffffffffffffffffffffffffffffffffffff1916827bffffffffffffffffffffffffffffffffffffffffffffffffffffffff1916149050919050565b60006002600083815260200190815260200160002060009054906101000a900473ffffffffffffffffffffffffffffffffffffffff169050919050565b80806114655750600073ffffffffffffffffffffffffffffffffffffffff168273ffffffffffffffffffffffffffffffffffffffff1614155b1561159957600061147584610b25565b9050600073ffffffffffffffffffffffffffffffffffffffff168373ffffffffffffffffffffffffffffffffffffffff16141580156114e057508273ffffffffffffffffffffffffffffffffffffffff168173ffffffffffffffffffffffffffffffffffffffff1614155b80156114f357506114f18184610929565b155b1561153557826040517fa9fbf51f00000000000000000000000000000000000000000000000000000000815260040161152c9190611cd9565b60405180910390fd5b811561159757838573ffffffffffffffffffffffffffffffffffffffff168273ffffffffffffffffffffffffffffffffffffffff167f8c5be1e5ebec7d5bd14f71427d1e84f3dd0314c0f7b2291e5b200ac8c7c3b92560405160405180910390a45b505b836004600085815260200190815260200160002060006101000a81548173ffffffffffffffffffffffffffffffffffffffff021916908373ffffffffffffffffffffffffffffffffffffffff16021790555050505050565b6115fc8383836117a7565b6116b057600073ffffffffffffffffffffffffffffffffffffffff168373ffffffffffffffffffffffffffffffffffffffff160361167157806040517f7e2732890000000000000000000000000000000000000000000000000000000081526004016116689190611def565b60405180910390fd5b81816040517f177e802f0000000000000000000000000000000000000000000000000000000081526004016116a79291906125fd565b60405180910390fd5b505050565b6060600060016116c484611868565b01905060008167ffffffffffffffff8111156116e3576116e2611e80565b5b6040519080825280601f01601f1916602001820160405280156117155781602001600182028036833780820191505090505b509050600082602083010190505b600115611778578080600190039150507f3031323334353637383961626364656600000000000000000000000000000000600a86061a8153600a858161176c5761176b612626565b5b04945060008503611723575b819350505050919050565b61178d83836119bb565b6117a2611798610bea565b60008585856110da565b505050565b60008073ffffffffffffffffffffffffffffffffffffffff168373ffffffffffffffffffffffffffffffffffffffff161415801561185f57508273ffffffffffffffffffffffffffffffffffffffff168473ffffffffffffffffffffffffffffffffffffffff161480611820575061181f8484610929565b5b8061185e57508273ffffffffffffffffffffffffffffffffffffffff1661184683610bad565b73ffffffffffffffffffffffffffffffffffffffff16145b5b90509392505050565b600080600090507a184f03e93ff9f4daa797ed6e38ed64bf6a1f01000000000000000083106118c6577a184f03e93ff9f4daa797ed6e38ed64bf6a1f01000000000000000083816118bc576118bb612626565b5b0492506040810190505b6d04ee2d6d415b85acef81000000008310611903576d04ee2d6d415b85acef810000000083816118f9576118f8612626565b5b0492506020810190505b662386f26fc10000831061193257662386f26fc10000838161192857611927612626565b5b0492506010810190505b6305f5e100831061195b576305f5e100838161195157611950612626565b5b0492506008810190505b612710831061198057612710838161197657611975612626565b5b0492506004810190505b606483106119a3576064838161199957611998612626565b5b0492506002810190505b600a83106119b2576001810190505b80915050919050565b600073ffffffffffffffffffffffffffffffffffffffff168273ffffffffffffffffffffffffffffffffffffffff1603611a2d5760006040517f64a0ae92000000000000000000000000000000000000000000000000000000008152600401611a249190611cd9565b60405180910390fd5b6000611a3b83836000610c04565b9050600073ffffffffffffffffffffffffffffffffffffffff168173ffffffffffffffffffffffffffffffffffffffff1614611aaf5760006040517f73c6ac6e000000000000000000000000000000000000000000000000000000008152600401611aa69190611cd9565b60405180910390fd5b505050565b6000604051905090565b600080fd5b600080fd5b60007fffffffff0000000000000000000000000000000000000000000000000000000082169050919050565b611afd81611ac8565b8114611b0857600080fd5b50565b600081359050611b1a81611af4565b92915050565b600060208284031215611b3657611b35611abe565b5b6000611b4484828501611b0b565b91505092915050565b60008115159050919050565b611b6281611b4d565b82525050565b6000602082019050611b7d6000830184611b59565b92915050565b600081519050919050565b600082825260208201905092915050565b60005b83811015611bbd578082015181840152602081019050611ba2565b60008484015250505050565b6000601f19601f8301169050919050565b6000611be582611b83565b611bef8185611b8e565b9350611bff818560208601611b9f565b611c0881611bc9565b840191505092915050565b60006020820190508181036000830152611c2d8184611bda565b905092915050565b6000819050919050565b611c4881611c35565b8114611c5357600080fd5b50565b600081359050611c6581611c3f565b92915050565b600060208284031215611c8157611c80611abe565b5b6000611c8f84828501611c56565b91505092915050565b600073ffffffffffffffffffffffffffffffffffffffff82169050919050565b6000611cc382611c98565b9050919050565b611cd381611cb8565b82525050565b6000602082019050611cee6000830184611cca565b92915050565b611cfd81611cb8565b8114611d0857600080fd5b50565b600081359050611d1a81611cf4565b92915050565b60008060408385031215611d3757611d36611abe565b5b6000611d4585828601611d0b565b9250506020611d5685828601611c56565b9150509250929050565b600080600060608486031215611d7957611d78611abe565b5b6000611d8786828701611d0b565b9350506020611d9886828701611d0b565b9250506040611da986828701611c56565b9150509250925092565b600060208284031215611dc957611dc8611abe565b5b6000611dd784828501611d0b565b91505092915050565b611de981611c35565b82525050565b6000602082019050611e046000830184611de0565b92915050565b611e1381611b4d565b8114611e1e57600080fd5b50565b600081359050611e3081611e0a565b92915050565b60008060408385031215611e4d57611e4c611abe565b5b6000611e5b85828601611d0b565b9250506020611e6c85828601611e21565b9150509250929050565b600080fd5b600080fd5b7f4e487b7100000000000000000000000000000000000000000000000000000000600052604160045260246000fd5b611eb882611bc9565b810181811067ffffffffffffffff82111715611ed757611ed6611e80565b5b80604052505050565b6000611eea611ab4565b9050611ef68282611eaf565b919050565b600067ffffffffffffffff821115611f1657611f15611e80565b5b611f1f82611bc9565b9050602081019050919050565b82818337600083830152505050565b6000611f4e611f4984611efb565b611ee0565b905082815260208101848484011115611f6a57611f69611e7b565b5b611f75848285611f2c565b509392505050565b600082601f830112611f9257611f91611e76565b5b8135611fa2848260208601611f3b565b91505092915050565b60008060008060808587031215611fc557611fc4611abe565b5b6000611fd387828801611d0b565b9450506020611fe487828801611d0b565b9350506040611ff587828801611c56565b925050606085013567ffffffffffffffff81111561201657612015611ac3565b5b61202287828801611f7d565b91505092959194509250565b600080fd5b600080fd5b60008083601f84011261204e5761204d611e76565b5b8235905067ffffffffffffffff81111561206b5761206a61202e565b5b60208301915083600182028301111561208757612086612033565b5b9250929050565b6000806000604084860312156120a7576120a6611abe565b5b60006120b586828701611d0b565b935050602084013567ffffffffffffffff8111156120d6576120d5611ac3565b5b6120e286828701612038565b92509250509250925092565b6000806040838503121561210557612104611abe565b5b600061211385828601611d0b565b925050602061212485828601611d0b565b9150509250929050565b7f4e487b7100000000000000000000000000000000000000000000000000000000600052602260045260246000fd5b6000600282049050600182168061217557607f821691505b6020821081036121885761218761212e565b5b50919050565b60006060820190506121a36000830186611cca565b6121b06020830185611de0565b6121bd6040830184611cca565b949350505050565b600081905092915050565b60006121db82611b83565b6121e581856121c5565b93506121f5818560208601611b9f565b80840191505092915050565b600061220d82856121d0565b915061221982846121d0565b91508190509392505050565b7f4e487b7100000000000000000000000000000000000000000000000000000000600052601160045260246000fd5b600061225f82611c35565b91507fffffffffffffffffffffffffffffffffffffffffffffffffffffffffffffffff820361229157612290612225565b5b600182019050919050565b600081519050919050565b600082825260208201905092915050565b60006122c38261229c565b6122cd81856122a7565b93506122dd818560208601611b9f565b6122e681611bc9565b840191505092915050565b60006080820190506123066000830187611cca565b6123136020830186611cca565b6123206040830185611de0565b818103606083015261233281846122b8565b905095945050505050565b60008151905061234c81611af4565b92915050565b60006020828403121561236857612367611abe565b5b60006123768482850161233d565b91505092915050565b60008190508160005260206000209050919050565b60006020601f8301049050919050565b600082821b905092915050565b6000600883026123e17fffffffffffffffffffffffffffffffffffffffffffffffffffffffffffffffff826123a4565b6123eb86836123a4565b95508019841693508086168417925050509392505050565b6000819050919050565b600061242861242361241e84611c35565b612403565b611c35565b9050919050565b6000819050919050565b6124428361240d565b61245661244e8261242f565b8484546123b1565b825550505050565b600090565b61246b61245e565b612476818484612439565b505050565b5b8181101561249a5761248f600082612463565b60018101905061247c565b5050565b601f8211156124df576124b08161237f565b6124b984612394565b810160208510156124c8578190505b6124dc6124d485612394565b83018261247b565b50505b505050565b600082821c905092915050565b6000612502600019846008026124e4565b1980831691505092915050565b600061251b83836124f1565b9150826002028217905092915050565b61253482611b83565b67ffffffffffffffff81111561254d5761254c611e80565b5b612557825461215d565b61256282828561249e565b600060209050601f8311600181146125955760008415612583578287015190505b61258d858261250f565b8655506125f5565b601f1984166125a38661237f565b60005b828110156125cb578489015182556001820191506020850194506020810190506125a6565b868310156125e857848901516125e4601f8916826124f1565b8355505b6001600288020188555050505b505050505050565b60006040820190506126126000830185611cca565b61261f6020830184611de0565b9392505050565b7f4e487b7100000000000000000000000000000000000000000000000000000000600052601260045260246000fdfea26469706673582212209fa656b37c3134ca7b5db4ffd8ad3b4073cfb0d31c0c2fba4ef3ed43b5b8416464736f6c63430008140033",
  "linkReferences": {},
  "deployedLinkReferences": {}
}